{
  "_format": "hh-sol-artifact-1",
  "contractName": "Marketplace",
  "sourceName": "contracts/Marketplace.sol",
  "abi": [
    {
      "inputs": [],
      "stateMutability": "nonpayable",
      "type": "constructor"
    },
    {
      "anonymous": false,
      "inputs": [
        {
          "indexed": true,
          "internalType": "uint256",
          "name": "itemId",
          "type": "uint256"
        },
        {
          "indexed": true,
          "internalType": "address",
          "name": "nftContractAddress",
          "type": "address"
        },
        {
          "indexed": true,
          "internalType": "uint256",
          "name": "tokenId",
          "type": "uint256"
        },
        {
          "indexed": false,
          "internalType": "address",
          "name": "seller",
          "type": "address"
        },
        {
          "indexed": false,
          "internalType": "address",
          "name": "owner",
          "type": "address"
        },
        {
          "indexed": false,
          "internalType": "uint256",
          "name": "price",
          "type": "uint256"
        }
      ],
      "name": "MarketItemListed",
      "type": "event"
    },
    {
      "inputs": [
        {
          "internalType": "uint256",
          "name": "itemId",
          "type": "uint256"
        }
      ],
      "name": "buyMarketItem",
      "outputs": [],
      "stateMutability": "payable",
      "type": "function"
    },
    {
      "inputs": [
        {
          "internalType": "uint256",
          "name": "newPrice",
          "type": "uint256"
        }
      ],
      "name": "changeListingPrice",
      "outputs": [],
      "stateMutability": "nonpayable",
      "type": "function"
    },
    {
      "inputs": [
        {
          "internalType": "uint256",
          "name": "itemId",
          "type": "uint256"
        }
      ],
      "name": "getMarketItem",
      "outputs": [
        {
          "components": [
            {
              "internalType": "uint256",
              "name": "itemId",
              "type": "uint256"
            },
            {
              "internalType": "address",
              "name": "nftContractAddress",
              "type": "address"
            },
            {
              "internalType": "uint256",
              "name": "tokenId",
              "type": "uint256"
            },
            {
              "internalType": "address payable",
              "name": "seller",
              "type": "address"
            },
            {
              "internalType": "address",
              "name": "owner",
              "type": "address"
            },
            {
              "internalType": "uint256",
              "name": "price",
              "type": "uint256"
            },
            {
              "internalType": "bool",
              "name": "isSold",
              "type": "bool"
            },
            {
              "internalType": "bool",
              "name": "isPresent",
              "type": "bool"
            }
          ],
          "internalType": "struct Marketplace.MarketItem",
          "name": "items",
          "type": "tuple"
        }
      ],
      "stateMutability": "view",
      "type": "function"
    },
    {
      "inputs": [],
      "name": "itemCounter",
      "outputs": [
        {
          "internalType": "uint256",
          "name": "",
          "type": "uint256"
        }
      ],
      "stateMutability": "view",
      "type": "function"
    },
    {
      "inputs": [
        {
          "internalType": "address",
          "name": "nftContractAddress",
          "type": "address"
        },
        {
          "internalType": "uint256",
          "name": "tokenId",
          "type": "uint256"
        },
        {
          "internalType": "uint256",
          "name": "price",
          "type": "uint256"
        }
      ],
      "name": "listMarketItem",
      "outputs": [],
      "stateMutability": "payable",
      "type": "function"
    },
    {
      "inputs": [],
      "name": "listingPrice",
      "outputs": [
        {
          "internalType": "uint256",
          "name": "",
          "type": "uint256"
        }
      ],
      "stateMutability": "view",
      "type": "function"
    }
  ],
  "bytecode": "0x608060405234801561001057600080fd5b506000808190555033600160006101000a81548173ffffffffffffffffffffffffffffffffffffffff021916908373ffffffffffffffffffffffffffffffffffffffff160217905550662386f26fc100006002819055506110dd806100766000396000f3fe6080604052600436106100555760003560e01c8063213c4e1a1461005a578063351901c3146100765780636d6d00ed14610092578063ba0f1d9c146100bd578063c78f19f9146100e6578063c7be7a4914610111575b600080fd5b610074600480360381019061006f9190610aeb565b61014e565b005b610090600480360381019061008b9190610b3e565b6104f3565b005b34801561009e57600080fd5b506100a761075a565b6040516100b49190610b7a565b60405180910390f35b3480156100c957600080fd5b506100e460048036038101906100df9190610b3e565b610760565b005b3480156100f257600080fd5b506100fb61083d565b6040516101089190610b7a565b60405180910390f35b34801561011d57600080fd5b5061013860048036038101906101339190610b3e565b610843565b6040516101459190610c91565b60405180910390f35b6002543414610192576040517f08c379a000000000000000000000000000000000000000000000000000000000815260040161018990610d0a565b60405180910390fd5b600081116101d5576040517f08c379a00000000000000000000000000000000000000000000000000000000081526004016101cc90610d76565b60405180910390fd5b60405180610100016040528060005481526020018473ffffffffffffffffffffffffffffffffffffffff1681526020018381526020013373ffffffffffffffffffffffffffffffffffffffff168152602001600073ffffffffffffffffffffffffffffffffffffffff1681526020018281526020016000151581526020016001151581525060036000805481526020019081526020016000206000820151816000015560208201518160010160006101000a81548173ffffffffffffffffffffffffffffffffffffffff021916908373ffffffffffffffffffffffffffffffffffffffff1602179055506040820151816002015560608201518160030160006101000a81548173ffffffffffffffffffffffffffffffffffffffff021916908373ffffffffffffffffffffffffffffffffffffffff16021790555060808201518160040160006101000a81548173ffffffffffffffffffffffffffffffffffffffff021916908373ffffffffffffffffffffffffffffffffffffffff16021790555060a0820151816005015560c08201518160060160006101000a81548160ff02191690831515021790555060e08201518160060160016101000a81548160ff0219169083151502179055509050508273ffffffffffffffffffffffffffffffffffffffff166323b872dd3330856040518463ffffffff1660e01b81526004016103e193929190610da5565b600060405180830381600087803b1580156103fb57600080fd5b505af115801561040f573d6000803e3d6000fd5b50505050600160009054906101000a900473ffffffffffffffffffffffffffffffffffffffff1673ffffffffffffffffffffffffffffffffffffffff166108fc6002549081150290604051600060405180830381858888f1935050505015801561047d573d6000803e3d6000fd5b50818373ffffffffffffffffffffffffffffffffffffffff166000547f3ace6c0795583be5a3d695c6d91a02885edf298c6854b9801b4791aa52c08227336000866040516104cd93929190610da5565b60405180910390a460016000808282546104e79190610e0b565b92505081905550505050565b6003600082815260200190815260200160002060060160019054906101000a900460ff16610556576040517f08c379a000000000000000000000000000000000000000000000000000000000815260040161054d90610e8b565b60405180910390fd5b600015156003600083815260200190815260200160002060060160009054906101000a900460ff161515146105c0576040517f08c379a00000000000000000000000000000000000000000000000000000000081526004016105b790610ef7565b60405180910390fd5b34600360008381526020019081526020016000206005015414610618576040517f08c379a000000000000000000000000000000000000000000000000000000000815260040161060f90610f63565b60405180910390fd5b60016003600083815260200190815260200160002060060160006101000a81548160ff021916908315150217905550336003600083815260200190815260200160002060040160006101000a81548173ffffffffffffffffffffffffffffffffffffffff021916908373ffffffffffffffffffffffffffffffffffffffff1602179055506003600082815260200190815260200160002060010160009054906101000a900473ffffffffffffffffffffffffffffffffffffffff1673ffffffffffffffffffffffffffffffffffffffff166323b872dd303360036000868152602001908152602001600020600201546040518463ffffffff1660e01b815260040161072593929190610da5565b600060405180830381600087803b15801561073f57600080fd5b505af1158015610753573d6000803e3d6000fd5b5050505050565b60005481565b600081116107a3576040517f08c379a000000000000000000000000000000000000000000000000000000000815260040161079a90610ff5565b60405180910390fd5b600160009054906101000a900473ffffffffffffffffffffffffffffffffffffffff1673ffffffffffffffffffffffffffffffffffffffff163373ffffffffffffffffffffffffffffffffffffffff1614610833576040517f08c379a000000000000000000000000000000000000000000000000000000000815260040161082a90611087565b60405180910390fd5b8060028190555050565b60025481565b61084b6109c7565b6003600083815260200190815260200160002060405180610100016040529081600082015481526020016001820160009054906101000a900473ffffffffffffffffffffffffffffffffffffffff1673ffffffffffffffffffffffffffffffffffffffff1673ffffffffffffffffffffffffffffffffffffffff168152602001600282015481526020016003820160009054906101000a900473ffffffffffffffffffffffffffffffffffffffff1673ffffffffffffffffffffffffffffffffffffffff1673ffffffffffffffffffffffffffffffffffffffff1681526020016004820160009054906101000a900473ffffffffffffffffffffffffffffffffffffffff1673ffffffffffffffffffffffffffffffffffffffff1673ffffffffffffffffffffffffffffffffffffffff168152602001600582015481526020016006820160009054906101000a900460ff161515151581526020016006820160019054906101000a900460ff1615151515815250509050919050565b60405180610100016040528060008152602001600073ffffffffffffffffffffffffffffffffffffffff16815260200160008152602001600073ffffffffffffffffffffffffffffffffffffffff168152602001600073ffffffffffffffffffffffffffffffffffffffff168152602001600081526020016000151581526020016000151581525090565b600080fd5b600073ffffffffffffffffffffffffffffffffffffffff82169050919050565b6000610a8282610a57565b9050919050565b610a9281610a77565b8114610a9d57600080fd5b50565b600081359050610aaf81610a89565b92915050565b6000819050919050565b610ac881610ab5565b8114610ad357600080fd5b50565b600081359050610ae581610abf565b92915050565b600080600060608486031215610b0457610b03610a52565b5b6000610b1286828701610aa0565b9350506020610b2386828701610ad6565b9250506040610b3486828701610ad6565b9150509250925092565b600060208284031215610b5457610b53610a52565b5b6000610b6284828501610ad6565b91505092915050565b610b7481610ab5565b82525050565b6000602082019050610b8f6000830184610b6b565b92915050565b610b9e81610ab5565b82525050565b610bad81610a77565b82525050565b6000610bbe82610a57565b9050919050565b610bce81610bb3565b82525050565b60008115159050919050565b610be981610bd4565b82525050565b61010082016000820151610c066000850182610b95565b506020820151610c196020850182610ba4565b506040820151610c2c6040850182610b95565b506060820151610c3f6060850182610bc5565b506080820151610c526080850182610ba4565b5060a0820151610c6560a0850182610b95565b5060c0820151610c7860c0850182610be0565b5060e0820151610c8b60e0850182610be0565b50505050565b600061010082019050610ca76000830184610bef565b92915050565b600082825260208201905092915050565b7f4d7573742070617920746865206c697374696e67207072696365000000000000600082015250565b6000610cf4601a83610cad565b9150610cff82610cbe565b602082019050919050565b60006020820190508181036000830152610d2381610ce7565b9050919050565b7f5072696365206d7573742062652067726561746572207468616e203000000000600082015250565b6000610d60601c83610cad565b9150610d6b82610d2a565b602082019050919050565b60006020820190508181036000830152610d8f81610d53565b9050919050565b610d9f81610a77565b82525050565b6000606082019050610dba6000830186610d96565b610dc76020830185610d96565b610dd46040830184610b6b565b949350505050565b7f4e487b7100000000000000000000000000000000000000000000000000000000600052601160045260246000fd5b6000610e1682610ab5565b9150610e2183610ab5565b9250828201905080821115610e3957610e38610ddc565b5b92915050565b7f4974656d206973206e6f742070726573656e7400000000000000000000000000600082015250565b6000610e75601383610cad565b9150610e8082610e3f565b602082019050919050565b60006020820190508181036000830152610ea481610e68565b9050919050565b7f4974656d20697320616c726561647920736f6c64000000000000000000000000600082015250565b6000610ee1601483610cad565b9150610eec82610eab565b602082019050919050565b60006020820190508181036000830152610f1081610ed4565b9050919050565b7f4d757374207061792074686520636f7272656374207072696365000000000000600082015250565b6000610f4d601a83610cad565b9150610f5882610f17565b602082019050919050565b60006020820190508181036000830152610f7c81610f40565b9050919050565b7f4c697374696e67205072696365206d757374206265206772656174657220746860008201527f616e203000000000000000000000000000000000000000000000000000000000602082015250565b6000610fdf602483610cad565b9150610fea82610f83565b604082019050919050565b6000602082019050818103600083015261100e81610fd2565b9050919050565b7f4f6e6c7920746865206f776e65722063616e206368616e676520746865206c6960008201527f7374696e67207072696365000000000000000000000000000000000000000000602082015250565b6000611071602b83610cad565b915061107c82611015565b604082019050919050565b600060208201905081810360008301526110a081611064565b905091905056fea26469706673582212207af672133789af83483b6fb250aa924801991f5b05d603e2b55bd93ab036308464736f6c63430008110033",
  "linkReferences": {},
  "deployedLinkReferences": {}
}